S00D0000436C6F636B2E737265632B
S11300000C9434000C9451000C9451000C94510045
S11300100C9451000C9451000C9451000C94510018
S11300200C9451000C9451000C9451000C94510008
S11300300C9451000C9451000C944B030C945100FB
S11300400C9451000C9451000C9451000C945100E8
S11300500C9451000C9451000C9451000C945100D8
S11300600C9451000C94510011241FBECFEFD8E022
S1130070DEBFCDBF11E0A0E0B1E0E8EEFBE002C0DE
S113008005900D92A637B107D9F721E0A6E7B1E0B4
S113009001C01D92AB39B207E1F70E9451020C94E2
S11300A0F2050C9400002C9840E050E0682F70E0BA
S11300B02D982B9895B19B01042E02C03595279558
S11300C00A94E2F721703327220F331F220F331FC4
S11300D0220F331F292B25B92D9A4F5F5F4F4830CC
S11300E0510531F72C9A0895CF93DF93EC01E5E89D
S11300F0F1E02AE030E0B9010E94A805DC01AC5F20
S1130100BE4F8C918083CB01B9010E94A805DC010C
S1130110AC5FBE4F8C918183CE0164E670E00E9497
S1130120A805CB01B9010E94A805DC01AC5FBE4F54
S11301308C918283CE0168EE73E00E94A805CB0106
S1130140B9010E94A805DC01AC5FBE4F8C9183838A
S1130150DF91CF9108958AB1806F8AB98BB18F7086
S11301608BB984B1886384B92C9A80E090E00E94B2
S1130170740008950F931F93CF93DF938C01262F60
S1130180C5E8D1E0EAE0F0E0BF010E94A805CB0198
S1130190BF010E94A805DC01AC5FBE4F8C9188832F
S11301A0C80164E670E00E94A805CB01BF010E946B
S11301B0A805FC01EC5FFE4F808189838DEC289FAC
S11301C0E12D1124E695E695E6953E2F330F932F06
S11301D0990F990F930F291BA22FB0E0AC5FBE4F6C
S11301E09C919D7F9A83E89F812D11248695869505
S11301F08695880F982F990F990F890FE81BF0E0C7
S1130200EC5FFE4F80818B83DF91CF911F910F9123
S11302100895CF93DF93A5E8B1E09DEC899FE12D8C
S11302201124E695E695E6953E2F330F232F220FF2
S1130230220F230F821BC82FD0E0CC5FDE4F8881B2
S11302408C93E99F812D1124869586958695880F38
S1130250282F220F220F820FE81BF0E0EC5FFE4FE5
S1130260808111968C931197699FE12D1124E69555
S1130270E695E6952E2F220F822F880F880F820F86
S1130280681BC62FD0E0CC5FDE4F888112968C931A
S11302901297E99F912D1124969596959695990F0D
S11302A0892F880F880F980FE91BF0E0EC5FFE4F51
S11302B0808113968C93DF91CF9108958AB1807FCA
S11302C08AB98BB18F608BB90895489B08C0499B4C
S11302D008C04A9B08C04B9B08C080E0089581E099
S11302E0089582E0089583E0089584E008958330BA
S11302F099F0843001F1823009F580917A018F5FA1
S113030080937A0180917A018C3310F010927A01F3
S113031081E0809398010895809179018F5F8093A3
S11303207901809179018C3310F01092790181E088
S113033080939801089581E080939001089583301B
S113034061F08430C1F0823039F581E080939A0104
S113035010928D0110928E01089581E080938D0199
S113036080918E01811104C081E080938E010895F3
S113037010928E01089580918D01811104C081E055
S113038080938D0102C010928D0181E080938E01D3
S1130390809398010E9425030895833041F18430AD
S11303A009F445C0823009F04CC080918A01882349
S11303B069F080917B01815080937B0180917B0166
S11303C0811111C08CE080937B010DC080917C0170
S11303D0811104C08BE380937C0105C080917C0172
S11303E0815080937C0181E08093980108958091ED
S11303F08A01882369F080917B018F5F80937B0160
S113040080917B018D3078F081E080937B010BC07B
S113041080917C018F5F80937C0180917C018C337F
S113042010F010927C0181E08093980108958091EE
S11304308A01882319F010928A01089581E080933B
S11304408A010895833099F0843001F1823041F5B6
S1130450809199018F5F80939901809199018C33E8
S113046010F01092990181E0809398010895809191
S11304708C018F5F80938C0180918C018D3010F002
S113048010928C0181E080939801089580918F01EE
S1130490882319F010928F01089581E080938F01D1
S11304A008950E948A050E9498050E945E010E9498
S11304B0AB007894C8E8D0E011E06894EE24E2F848
S11304C00F2EF3E0FF2EF02D02E080919801882397
S11304D0A9F180917601811107C060917B0180911F
S11304E07C010E94090128C0833039F460917B01AA
S11304F080917C010E9409011FC0823061F48091C7
S11305008E018823C9F0609178018091810190E087
S11305100E94BA0011C0813039F460917901809150
S11305207A010E94090108C0843031F460918C0181
S1130530809199010E94090110929801809189018A
S1130540882309F440C00E946501882309F441C04E
S11305508FE99FE00197F1F700C000000E94650158
S11305608823B9F180918B01882341F010928B018B
S1130570109294011092930119821882809176014D
S1130580811103C00E9465011BC0833029F40E94BD
S113059065010E94CD0114C0813029F40E946501D7
S11305A00E9477010DC0823029F40E9465010E94E7
S11305B09F0106C0843021F40E9465010E9422023A
S11305C01092890106C00E946501811102C0109336
S11305D0890180919501882309F477CF10929501C0
S11305E00E946501813009F070CF809176018230DC
S11305F0F1F028F4882341F0813091F066CF833004
S113060041F08430E9F061CFF092760110939801C3
S11306105CCF10928A01109376011093980155CF04
S11306201092900100937601109398014ECF10928E
S11306308D0110939A01E09276011093980145CFB1
S1130640109276011093980140CF90E01816190685
S11306500CF520E030E0E8E8F0E044EF51E05183AD
S113066040836FEF73ECA9E061507040A040E1F764
S113067000C00000118210826FEF73ECA9E061509A
S11306807040A040E1F700C000002F5F3F4F2817E3
S1130690390729F708951F920F920FB60F9211246C
S11306A02F933F934F935F936F937F938F939F9376
S11306B0AF93BF93EF93FF9380917501882349F023
S11306C08091830190918401019690938401809399
S11306D0830180918D01882349F08091810190915B
S11306E08201019690938201809381018091890116
S11306F0811118C080917F0190918001019690939F
S1130700800180937F0180917F0190918001883ED8
S1130710934064F01092800110927F0181E08093F5
S1130720950104C01092800110927F0180918B0189
S1130730882309F487C08091960190919701892BB1
S113074009F073C080917401882309F455C0109294
S11307507401E0919301F0919401EE0FFF1FE05CAE
S1130760FE4F80819181892BC9F0E0919301F09132
S11307709401EE0FFF1FE05CFE4F20813181032EB8
S1130780000C440B550B60E472E48FE090E00E948F
S1130790BC05309389002093880004C0109289001E
S11307A010928800E0919301F0919401EE0FFF1FE5
S11307B0E25FFE4F80819181909392018093910139
S11307C08091930190919401019690939401809368
S11307D09301E0919301F0919401EE0FFF1FE05C0F
S11307E0FE4F8081918180339F4231F410928B01BE
S11307F01092890010928800809191019091920149
S1130800019790939201809391018091910190912D
S11308109201892BB9F481E0809374018AE090E01D
S113082090939701809396010DC0109289001092C5
S11308308800809196019091970101979093970178
S11308408093960180919001882351F180918301D6
S113085090918401883E93401CF180917A01882311
S113086049F080917A01815080937A0181E08093EC
S1130870980116C080917A01811112C0809179018A
S1130880811106C01092900181E080938B0108C011
S11308908CE380937A01809179018150809379016E
S11308A08091830190918401883E9340BCF1109221
S11308B084011092830180917D018F5F80937D017B
S11308C080917D018C3350F110927D0180917C01E7
S11308D08F5F80937C0180917C018C3368F010924F
S11308E07C0180917B018F5F80937B0180917B01F0
S11308F08C3010F010927B0190917B0180918C01DF
S1130900981309C090917C0180919901981303C0B8
S113091081E080938B0181E0809398018091810133
S113092090918201883E9340D4F0109282011092FB
S11309308101809178018F5F8093780180917801A3
S11309408C3368F010927801809177018F5F8093E7
S11309507701809177018C3310F0109277018091A8
S11309608101909182016AE070E00E94A805892BC0
S113097039F480917601823019F481E080939801F2
S113098080919A01882379F010929A0181E08093F2
S1130990980180938E01109282011092810110922D
S11309A078011092770180917E018F5F80937E01A0
S11309B080917E01843010F010927E018BB18F7093
S11309C08BB9E0917E01F0E0EB57FE4F80810E94ED
S11309D0530080917601813071F4E5E8F1E0828181
S11309E08D7F8283E0917E019BB1F0E0E050FF4F68
S11309F08081892B8BB9809176018330C1F5E5E83C
S1130A00F1E082818D7F82838091830190918401C2
S1130A10853F914054F4E0917E019BB1F0E0E050B9
S1130A20FF4F8081892B8BB964C080918A01882310
S1130A3079F080917E01823008F05BC0E0917E0104
S1130A409BB1F0E0E050FF4F8081892B8BB951C0FE
S1130A5080917E01823008F44CC0E0917E019BB10C
S1130A60F0E0E050FF4F8081892B8BB942C08111A7
S1130A701CC08091830190918401853F914034F49E
S1130A80E5E8F1E082818D7F828305C0E5E8F1E04D
S1130A90828182608283E0917E019BB1F0E0E0502C
S1130AA0FF4F8081892B8BB924C08430C9F4809195
S1130AB08F01882331F0E5E8F1E082818D7F828324
S1130AC005C0E5E8F1E0828182608283E0917E01E5
S1130AD09BB1F0E0E050FF4F8081892B8BB909C0B6
S1130AE0E0917E019BB1F0E0E050FF4F8081892BC3
S1130AF08BB9FF91EF91BF91AF919F918F917F91AE
S1130B006F915F914F913F912F910F900FBE0F9076
S1130B101F90189584B5826084BD85B5836085BDBA
S1130B2089EF87BDEEE6F0E08081826080830895DE
S1130B30219AE0E8F0E0808180648083E1E8F0E0DD
S1130B4080818A60808310928900109288000895C1
S1130B5097FB072E16F4009407D077FD09D00E9466
S1130B60DE0507FC05D03EF4909581959F4F0895CE
S1130B70709561957F4F0895A1E21A2EAA1BBB1BA5
S1130B80FD010DC0AA1FBB1FEE1FFF1FA217B30755
S1130B90E407F50720F0A21BB30BE40BF50B661F6B
S1130BA0771F881F991F1A9469F76095709580952F
S1130BB090959B01AC01BD01CF010895AA1BBB1BFD
S1130BC051E107C0AA1FBB1FA617B70710F0A61B49
S1130BD0B70B881F991F5A95A9F780959095BC016A
S10B0BE0CD010895F894FFCF44
S1130BE81020408082EE232A4E1A12AE020AAA026C
S1130BF85501550155015501AA02AA02550155018D
S1130C0855015501AA021C02AA00550155015501B6
S1130C185501AA02AA025501550155015501AA0216
S1130C28100393029302100393020B024B029302E4
S1130C384B020B029302100316041003160410034C
S1130C4816041003930210034B02BA0293024B02D8
S1090C580B02302F010124
S9030000FC
